:020000040000fa
:080000000002040000000000f2
:020000040000fa
:0400080028040000c8
:020000040000fa
:04000c0028040000c4
:020000040000fa
:0400100028040000c0
:020000040000fa
:0400140028040000bc
:020000040000fa
:0400180028040000b8
:020000040000fa
:04001c0028040000b4
:020000040000fa
:0400200028040000b0
:020000040000fa
:0400240028040000ac
:020000040000fa
:0400280028040000a8
:020000040000fa
:04002c0028040000a4
:020000040000fa
:0400300028040000a0
:020000040000fa
:04003400fa020000cc
:020000040000fa
:040038002804000098
:020000040000fa
:04003c002804000094
:020000040000fa
:040040002804000090
:020000040000fa
:04004400280400008c
:020000040000fa
:04004800540300005d
:020000040000fa
:04004c002804000084
:020000040000fa
:040050002804000080
:020000040000fa
:04005400e4030000c1
:020000040000fa
:04005800ba030000e7
:020000040000fa
:04005c009603000007
:020000040000fa
:040060002804000070
:020000040000fa
:04006400280400006c
:020000040000fa
:040068002804000068
:020000040000fa
:04006c002804000064
:020000040000fa
:040070002804000060
:020000040000fa
:04007400280400005c
:020000040000fa
:040078002804000058
:020000040000fa
:04007c002804000054
:020000040000fa
:040080002804000050
:020000040000fa
:04008400280400004c
:020000040000fa
:040088002804000048
:020000040000fa
:04008c002804000044
:020000040000fa
:040090002804000040
:020000040000fa
:040094001a0300004b
:020000040000fa
:040098002804000038
:020000040000fa
:04009c002804000034
:020000040000fa
:0400a0002804000030
:020000040000fa
:0400a400280400002c
:020000040000fa
:0400a8002804000028
:020000040000fa
:0400ac002804000024
:020000040000fa
:0400b0002804000020
:020000040000fa
:0400b400280400001c
:020000040000fa
:0400b8002804000018
:020000040000fa
:0400bc002804000014
:020000040000fa
:0400c0002804000010
:020000040000fa
:0400c400280400000c
:020000040000fa
:0400c8002804000008
:020000040000fa
:0400cc002804000004
:020000040000fa
:0400d0002804000000
:020000040000fa
:0400d40028040000fc
:020000040000fa
:0400d80028040000f8
:020000040000fa
:0400dc0028040000f4
:020000040000fa
:0400e00028040000f0
:020000040000fa
:0400e40028040000ec
:020000040000fa
:0400e80028040000e8
:020000040000fa
:0400ec0028040000e4
:020000040000fa
:0400f00028040000e0
:020000040000fa
:0400f40028040000dc
:020000040000fa
:0400f80028040000d8
:020000040000fa
:0400fc0028040000d4
:020000040000fa
:0401000028040000cf
:020000040000fa
:0401040028040000cb
:020000040000fa
:0401080028040000c7
:020000040000fa
:04010c0028040000c3
:020000040000fa
:0401100028040000bf
:020000040000fa
:0401140028040000bb
:020000040000fa
:0401180028040000b7
:020000040000fa
:04011c0028040000b3
:020000040000fa
:0401200028040000af
:020000040000fa
:0401240028040000ab
:020000040000fa
:0401280028040000a7
:020000040000fa
:04012c0028040000a3
:020000040000fa
:04013000280400009f
:020000040000fa
:04013400280400009b
:020000040000fa
:040138002804000097
:020000040000fa
:04013c002804000093
:020000040000fa
:04014000280400008f
:020000040000fa
:04014400280400008b
:020000040000fa
:040148002804000087
:020000040000fa
:04014c002804000083
:020000040000fa
:04015000280400007f
:020000040000fa
:04015400280400007b
:020000040000fa
:040158002804000077
:020000040000fa
:04015c002804000073
:020000040000fa
:04016000280400006f
:020000040000fa
:04016400280400006b
:020000040000fa
:040168002804000067
:020000040000fa
:04016c002804000063
:020000040000fa
:04017000280400005f
:020000040000fa
:04017400280400005b
:020000040000fa
:040178002804000057
:020000040000fa
:04017c002804000053
:020000040000fa
:04018000280400004f
:020000040000fa
:04018400280400004b
:020000040000fa
:040188002804000047
:020000040000fa
:04018c002804000043
:020000040000fa
:04019000280400003f
:020000040000fa
:04019400280400003b
:020000040000fa
:040198002804000037
:020000040000fa
:04019c002804000033
:020000040000fa
:0401a000280400002f
:020000040000fa
:0401a400280400002b
:020000040000fa
:0401a8002804000027
:020000040000fa
:0401ac002804000023
:020000040000fa
:0401b000280400001f
:020000040000fa
:0401b400280400001b
:020000040000fa
:0401b8002804000017
:020000040000fa
:0401bc002804000013
:020000040000fa
:0401c000280400000f
:020000040000fa
:0401c400280400000b
:020000040000fa
:0401c8002804000007
:020000040000fa
:0401cc002804000003
:020000040000fa
:0401d00028040000ff
:020000040000fa
:0401d40028040000fb
:020000040000fa
:0401d80028040000f7
:020000040000fa
:0401dc0028040000f3
:020000040000fa
:0401e00028040000ef
:020000040000fa
:0401e40028040000eb
:020000040000fa
:0401e80028040000e7
:020000040000fa
:0401ec0028040000e3
:020000040000fa
:0401f00028040000df
:020000040000fa
:0401f40028040000db
:020000040000fa
:0401f80028040000d7
:020000040000fa
:0401fc0028040000d3
:020000040000fa
:0402000028040000ce
:020000040000fa
:0402040028040000ca
:020000040000fa
:0402080028040000c6
:020000040000fa
:04020c0028040000c2
:020000040000fa
:0402100028040000be
:020000040000fa
:0402140028040000ba
:020000040000fa
:0402180028040000b6
:020000040000fa
:04021c0028040000b2
:020000040000fa
:0402200028040000ae
:020000040000fa
:0402240028040000aa
:020000040000fa
:0402280028040000a6
:020000040000fa
:04022c0028040000a2
:020000040000fa
:04023000280400009e
:020000040000fa
:04023400280400009a
:020000040000fa
:040238002804000096
:020000040000fa
:04023c002804000092
:020000040000fa
:04024000280400008e
:020000040000fa
:04024400280400008a
:020000040000fa
:040248002804000086
:020000040000fa
:04024c002804000082
:020000040000fa
:04025000280400007e
:020000040000fa
:04025400280400007a
:020000040000fa
:040258002804000076
:020000040000fa
:04025c002804000072
:020000040000fa
:04026000280400006e
:020000040000fa
:04026400280400006a
:020000040000fa
:10040000ef1421000eff2d000e01880000000000f7
:10041000000020000000e000020032000001200087
:1004200020028800140007000b0107000000e00014
:1004300003003a00e099210001002000020037008b
:100440000000200001002000810f70000100320038
:100450000f000700000020000000e0000200320052
:1004600000000200000000009c0c020000000000e0
:100470000040da000000fe00200020000000e00044
:1004800002003200100020009001880000000600e9
:10049000a1028800800478000000eb001f003700f4
:1004a000e284440054a0b4009905ba00e2844400f8
:1004b00054a0b4009906ba00e284440054a0b400e9
:1004c0000006eb00476fde00fd07b200ae018800ba
:1004d000636ce10003003a000ad801000000eb0061
:1004e0000e003700606ce10008003a00004deb00a0
:1004f0000a05e800020039003420ec000af0a000f0
:100500008b05e900f9ff3e00040037006168e10057
:10051000010032000086eb000b00070019c7ba008b
:100520000e04e0001905ba0003003a000a00e000da
:10053000dbff3a0000000600fe07b200ae028800b2
:100540008a047800f5ff37000cd0a300e20f4d00bd
:100550001c003b0089027800354dba000a05e8000e
:10056000020039003420ec000af0a0008b05e900fd
:100570000f003200254dba000a05e80002003900dc
:100580003420ec000af0a0008b05e90008003200de
:100590000c00e0000600320015cdba000a05e800a4
:1005a000020039003420ec000af0a0008b05e900bd
:1005b0008984e80054a0b4000b00e000e2ff3a0098
:1005c000000006009902ba00055d78008b05e9007d
:1005d000f7ff3200c82ade00055d78008b05e900d0
:1005e000f3ff32000c00e000f1ff320019ddba0029
:1005f000eeff37003600f800809fbe00829fbe00ed
:10060000849fbe00869fbe000000fa000068a9001b
:100610003d0807008f0a07000080fa004f03be0064
:100620004f02be004f01be004f00be003600f90071
:10063000004006003600f800809fbe00829fbe008a
:10064000849fbe00869fbe000000fa000368a900d8
:100650002d0807007f0a0700907380006200600089
:100660000000e000020032000630ef000830ef002a
:10067000308080004180800061004000e0804800c0
:100680003080880041808800090607000080fa0059
:100690004f03be004f02be004f01be004f00be0020
:1006a0003600f900004006003600f800809fbe00ca
:1006b000829fbe00849fbe00869fbe000000fa009d
:1006c0000108a90014d0bf000004e00009003a00ae
:1006d0008000eb0040012000dc0807001100200032
:1006e00040012000d908070010c0b30014f0b70083
:1006f000070037008000eb00c0fe2f00d308070082
:1007000011002000c0fe2f00d00807001470ef0079
:100710000080fa004f03be004f02be004f01be0032
:100720004f00be003600f90000400600801f780030
:100730000000fa0001a8a90000188000208a8800a3
:1007400010188000308a880020188000408a8800b5
:1007500030188000508a880040188000608a880025
:1007600010c0b30017f0b7000080fa004f00780007
:10077000004006003600f800809fbe00829fbe0049
:10078000849fbe00869fbe000000fa000188a90079
:100790001180800000808000808f500002003200b5
:1007a00083090700010037000470ef000080fa00a1
:1007b0004f03be004f02be004f01be004f00be00ff
:1007c0003600f900004006003600f800809fbe00a9
:1007d000829fbe00849fbe00869fbe000000fa007c
:1007e0000168a90010118000640060000000e000b2
:1007f000010032002242a900101180006200600056
:100800000000e000060032002222a90005003700a7
:1008100030118000004078001e0a070001003700f8
:100820000000000010118000610060000000e00086
:10083000f7ff3a000080fa004f03be004f02be00ef
:100840004f01be004f00be003600f9000040060018
:100850000040da000000fe00000005001400200047
:10086000ad033700f4ff2f00ab0337000001be00db
:100870003f0007000470a70003f0a1006509b10064
:10088000160032000d0035006828e1000600350032
:10089000f0ff2f00f1ff27000300e00013003b00f2
:1008a0000100280000000500000040008180480091
:1008b0008502e900fcff3a0008003700f88f42008b
:1008c00002003c008000eb00000005008100d10028
:1008d0000080d3008502e800fcff3a000300e0003e
:1008e00002003b0060001000e080180000000600dd
:1008f0000001be001e0007000470a70003f0a10065
:1009000003f8a30013003a006509b100100032009b
:10091000090035006928e1000200350001002800c7
:100920000000050000004000818048008502e900c9
:10093000fcff3a0000000600f88f42000500350079
:100940008100d1000080d3008502e800fcff3a005e
:10095000000006008000eb00000005004f89de006b
:1009600082017800870337006011b80095033700d3
:10097000c70ade00f107b200f50fb200080032002e
:10098000e1cf4200020032000170a0002400050007
:10099000810f7000010032000408050044000500ca
:1009a000810f700002003a00140005008502e90082
:1009b0000000400081c04800fcff3b000170a00027
:1009c0002400050007f82700078361000638e100ce
:1009d00004003a00f7072000878361008703710055
:1009e00001003a0003f0a200889fbe008a9fbe006b
:1009f0008c9fbe00470ade000480a100c71ade00fb
:100a00000580a10007002800078560008785610038
:100a1000f70f20000720e1009e0032000728e100c8
:100a20009c003200010678000400e000b4003200af
:100a3000f7072000878060000170a0000500e0003b
:100a4000c0003200f7072000878161000370a0001a
:100a5000050652000f003a000b50e1000b00320077
:100a60000308e10002003a000200e1007e003200cb
:100a70000204500083845800040031000001fd008e
:100a80008101fd008402fd008a05fd006044b8007c
:100a9000210037000520e10005003d000001fd00b8
:100aa0008101fd008402fd008a05fd00050652005b
:100ab0007a60e100050035000170a1004722dd00e9
:100ac000848070008a807000630037006044b80042
:100ad000ef02660007ff2f00070666000500e00032
:100ae00006003400f08312008714dd000511de00db
:100af000071bdd00060171008519de007060e10052
:100b000005003500090478008204780003017800ac
:100b10008001eb00700656000b50e10003003a0024
:100b20000200400083804800040037006004140085
:100b3000e0841c0002005800838058000188a30054
:100b4000060032008100d1000080d3008984d300e8
:100b50000884d3000402e800270037000178a300ce
:100b600025003a000100e000030032008186cf003a
:100b7000698656000a0037008c0020000000e00063
:100b800004003a0009007800880478000004eb00b3
:100b9000700252008086cf000d0646000c06e90068
:100ba0007060e100060035008000780009007800e0
:100bb000880478000004eb007006560070025200b2
:100bc0000c00e0000c0034008c08dd00f00316007f
:100bd0000703de00868070000c00dd00074bde009e
:100be000060070008c4cdd000743de008684740034
:100bf0000c44dd000c0252006120e10020003500b1
:100c0000610160000700280087816400f7ff27006a
:100c100087836400070374000300e00006003200cd
:100c200082037300040032000000e800e080480006
:100c30000188a3000e003a00f70f20000720e10012
:100c40004a003d000170a1004722dd0081007200d2
:100c50008a8070000000be004f06be004f05be0037
:100c60004f04be00000006006000b800faff370025
:100c70008100d1000080d3000402e800eeff3700bd
:100c80000401780089017400a10107008a807000c6
:100c9000f1ff3700f7010700070278000001fd00af
:100ca0008101fd00f30107008702780085037200cf
:100cb0000778a300040032000001fd008101fd005f
:100cc00006020700e4ff3700850362000768a300ff
:100cd000080032000b50e10003003200f0ff2f004b
:100ce000f1ff2700dcff37000001fd008101fd005e
:100cf000d9ff37000468a300d7ff3200faff37009e
:100d0000f8ff2700888360000b003a000000e00035
:100d100009003a00830364008283730002003200fa
:100d20000200be00ccff37000b50e100ceff3a00be
:100d30000200be00c8ff37001400200081006400dc
:100d40003eff3700f8ff27008883610004003a0067
:100d50000200e00002003a008c007800beff37007d
:100d6000150020008301640039ff370001f82700d7
:100d70000000200081007500b7ff3700889fbe008b
:100d80008a9fbe008c9fbe001b0020000202be0096
:100d90000586680006002800060666004709de0092
:100da000f20fb200820032000243e80080003200fd
:100db000c729de00f30fb2007d0032000343e800d4
:100dc0007b003200f107b2000170a000f507b2000d
:100dd0000570a000c708dd004903de0086807000b2
:100de0004700dd00c72add004923de00868272004d
:100df0004722dd000305510004035000858358009d
:100e00000300310000004000818048000a05e9002d
:100e10008c1f78008a9fbe00040050008580580017
:100e20000402420085824a000000400081804800a0
:100e30000005eb000004be006033b8000406be00ed
:100e40000d48e10056003100110009004dccd800da
:100e50000c01b8000d02b8008481410060824a0094
:100e60008283530003045c0084845c0060055d00a1
:100e70000a00e00025003a00800578000d40e100fe
:100e8000490031008800780007007800110009004f
:100e90004d88d8000c01b8000d02b80084814100d3
:100ea00060824a006003110083835b0004045c00dd
:100eb000e0845c000900e00021003a004f01be0020
:100ec0000300e0002b003200e3016000070673001e
:100ed0008c81710001003200640070004200de006d
:100ee0004e5edd000c007000c258de0001e0a00084
:100ef00083010700cf017800818071004f06be009a
:100f00004f05be004f04be00000006008c83430066
:100f10000d044c00e0844c0060054d000000e90029
:100f20000a00e000d4ff32008c8343000d044c0023
:100f3000e0844c0060054d000000e900ceff370062
:100f40000c0343008d834b0060044c00e0844c0094
:100f50000000e9000900e000d8ff32000c03430064
:100f60008d834b0060044c00e0844c000000e900dd
:100f7000d2ff37004200de004e5edd000c00700044
:100f8000c258de0001e0a000cf0178000300e000bd
:100f9000daff320060001000e0801800d7ff370051
:100fa000f0ff2f00aaff3700f0ff2f00b9ff370036
:100fb0000404be002f010700870678000004fd002e
:100fc0008104fd002b010700078366000678a3005b
:100fd000030032000960a7000800be002c003700a3
:100fe0000d78a300020032000800be002800370080
:100ff0000778a30026003a0001f0a10009f0a10043
:101000000668a30003003200f1ff2700f0ff2f0065
:10101000baff37000d68a300030032000800be00cd
:101020008c807000b5ff37000768a30007003a0006
:101030000648a30003003200f1ff2700f0ff2f0055
:10104000aeff37000d48a300030032006000b80077
:101050008c807000a9ff37000748a300040032000d
:1010600001f82700000020008c807000a3ff3700eb
:10107000760107000004fd008104fd0002057800f0
:10108000720107000802be008a01780059ff37008c
:101090000160a00012022000c280880097ff370084
:1010a0000100e000120032000500e00010003200f4
:1010b000889fbe008a9fbe008c9fbe000006eb008a
:1010c00001f8a3000300320060001000e080180067
:1010d0000cf0a00005f8a30003003200600212002b
:1010e000e0821a000cf0a2008005eb0041ff3700ff
:1010f0006000b800020005000383680007002800b4
:1011000007036300470ade000480a100c71ade005f
:101110000580a100f70f20000720e1004200320007
:101120000728e10040003200889fbe008a9fbe0071
:101130008c1f7800f107b200f307b2000400e00052
:10114000640032000170a0000500e0006800320079
:101150000370a00085054200eb07b1000204b8004f
:101160000302b8008484440060854a00020ab80083
:10117000848444000a854a00030ab8000405450037
:10118000040033000804d0008984d2000a85d2000c
:101190008b05e9006158e1003d0035000210200098
:1011a000090161000308200089816100f707200020
:1011b0008783640008867300c84cde00c853dd00d6
:1011c000878474004855de000300e000060032000a
:1011d00082037600040032008904e80060054d00b7
:1011e0000a88a3000c003a00f70f20000758e1001e
:1011f00044003d000a70a100c75ddd000a8575004e
:101200008a007300090078004f0678004f05be0081
:101210004f04be00000006000a05d1008984d300f7
:101220008b05e800f0ff3700881f7800060478007f
:1012300090000700070278000001fd008101fd0019
:101240008c00070087027800850372000778a300ee
:10125000050032000001fd008101fd009f00070034
:101260004f04780000000600850372000748a300c1
:1012700003003200f0ff2f00f1ff2700f8ff3700d6
:101280000000200001f8270088807000f4ff37007c
:10129000880178004848dd00808171004848de0000
:1012a000c850dd0001007000c850de000604780060
:1012b0000b0178001600070088807000d2ff37000d
:1012c0000500e00005003200170020003a0007008a
:1012d0009dff370081037000f9ff3a008600780017
:1012e0004f0678004f05be004f04be000000050009
:1012f00083037100f9ff3200270020002e00070051
:1013000094ff370001f8270086807000f4ff370053
:101310000100e00026003200610111007810e100b8
:1013200023003c006022b8007010e100040035008a
:1013300080027800010078008000eb00700151000d
:101340000200e0000900340070031100062add00ed
:10135000822ade008603dd00878272000200de0042
:10136000860bdd00070070008208de0084817100ba
:10137000f4ff2700048262008481710004002800c9
:10138000848262006102600005f0a6000000060091
:1013900004827100070032000000e800e08048008d
:1013a000000006000002be006000b800efff37003a
:1013b0006000b80000000600889fbe000004eb003b
:1013c0006138e10016003a000100e00008003a0030
:1013d000c800de004800dd00880020000100e000b9
:1013e00003003a00c800de004800dd006804440045
:1013f0008184cf00e9845400060034008908dd00b0
:10140000f08314008703de00878070000900dd0090
:1014100009044400610214004f04be0000000600ed
:101420000300e00008003a00c811de004811dd00aa
:10143000880020000300e00003003a00c811de002d
:101440004811dd00680444008384cf00e98454001f
:10145000060034008919dd00f08314008713de00d4
:10146000878171000911dd0009044400e1021400c4
:10147000e9ff37002700200001f0a7001700200037
:10148000470bde00f60fb200040032000643e8000e
:101490000a0032004702b300000006000103780092
:1014a000f607b2000603700002003a000703b3001b
:1014b000000006008702b300000006000103780068
:1014c000f607b20006037000020032000770a000a9
:1014d000000006000760a000000006000478a300da
:1014e000040032000578a300030032000168a30065
:1014f00001003a000200be000160a00000000600ea
:1015000081017000270032008002eb0001f8a30087
:101510000300320060001000e08018001500200079
:10152000f40720000202420020003400f7032000ec
:101530008703600006042000000363000208200007
:10154000000161004700de00c909dd000080710074
:10155000c708de000600e0000800320087037100c3
:10156000060032001000b0000180b0000188a30026
:1015700002003200c108de000402e800f107b200f8
:10158000f30f20000320e10003003d004722dd00af
:10159000810072002900370001f827000000eb00ed
:1015a000260037006000b800000006006802120044
:1015b0007f20e100020034006000b8001f00370007
:1015c0006011b8007020e10004003500800178004f
:1015d000010078008000eb00700252000400e0007f
:1015e00009003400f00312000719dd008419de0041
:1015f0000703dd00868171000400de00070bdd00bb
:10160000060070008408de00f7ff27008383630074
:1016100087037100060028000303630007003200ff
:101620000700e00003003a006101600002817300de
:10163000020032001000b0000180b0000500a600da
:101640000000060001f0a000000006004f0ade00c6
:101650004709de00f107b200f20fb2000b003200c2
:10166000f207b1000170a000c708dd00c901de006b
:10167000838070004700dd000400a6000000060023
:1016800060001000e080180000000600810f70006c
:1016900001003a00000006008182cf000500e00052
:1016a00010003e008082cf00ee8242007028e100f0
:1016b0000400390007003e00800078000000eb00c5
:1016c0000e003700708312008600de000500dd008a
:1016d0000a003700708352008600dd000000eb0036
:1016e00006003700e28252008508dd007083120098
:1016f0000603de00868070000500dd007507b0007f
:101700000501ea000400a6000000060060001000c9
:10171000e080180000000600889fbe008a9fbe007f
:10172000841f78007c0007004f0078001100330010
:10173000f0ff2f00838f6c0006003b00040565005e
:101740000a00a7000800370009f0a60010002000da
:1017500008003700820f5400838f5c0003003900bb
:101760001000200001003e000000200009f0a7004a
:101770000000ea004f05be004f04be000000e0007c
:1017800000000600881f7800030478000300e000d2
:1017900007003d0060001000e080180060011900a3
:1017a000e081190002003b0001f02d00030037002a
:1017b0000400070008f0a70001f0a0004f04780023
:1017c00000000600889fbe008a9fbe000082700055
:1017d0000402710004827100260032000004be0081
:1017e0000200be006011b8006b09200095022000c5
:1017f0000182cf000a0039000541b1000082cf000c
:10180000070039000541b1000982cf00040039000a
:101810000541b1000882cf00010039000541b10047
:1018200005425200120032000a003b008281710022
:10183000610164008100d1000080d3008984d3005d
:101840000884d3008b05e8000442e800f7ff3a0063
:10185000070037000804440089844c000000480059
:10186000818048008b05e9000442e900f9ff3a0055
:10187000030007004f05be004f04be000000060035
:1018800081002000618055000b003d000b0020000e
:1018900061fe2f000100e1001d0034008281710013
:1018a000610164008904d1000884d3000000e800cd
:1018b000faff3a007100200061006400030070002c
:1018c000020060000900320061044400e0844c0022
:1018d0000988a500050032008b05e8006808e100d2
:1018e00002003a008904d1000884d300f20f2000de
:1018f0000258e10005003d00c75ddd00f907b200b8
:101900008980750008007800000006000bf82700a9
:101910008b007800000005000004be0014fc0700e6
:101920000003be000405be000200be0010fc07005c
:08193000844f75000000060061
:020000040000fa
:101938000a00fa00881f78003f0507004b060700d9
:1019480051030700870507005c020700130607001c
:1019580001003700000000000000eb00000f7800d5
:1019680006003700dc050700004f980068004700b4
:1019780011002000d00407001e0fe800f005070042
:101988009e0f5000f7ff3c00b8050700e14f5000dc
:10199800f0ff3a00b9050700b005070010079800e6
:1019a8001e009000100078008000eb00ecfb0700a0
:1019b8003233230033052400cdfd07000200200048
:1019c80003582400ebfc0700200798003107980013
:1019d8002e019000be01900000002000812024000c
:1019e800e4fc070002002000030a2400f3fb0700c0
:1019f800e0898800f18988001e0090000080e800d6
:101a0800100078008000eb00d5fb0700323323007c
:101a180033052400b6fd0700020020000358240007
:101a2800d4fc070020079800310798002e01900089
:101a3800be0190000000200081202400cdfc07009a
:101a480002002000030a2400dcfb070080898800cc
:101a5800918988001e009000640040001000780002
:101a68008000eb00befb070032332300330524005f
:101a78009ffd07000200200003582400bdfc07005a
:101a880020079800310798002e019000be019000b1
:101a98000000200081202400b6fc0700020020007e
:101aa800030a2400c5fb0700c0898800d189880083
:101ab8001e00900066004000100078008000eb00d7
:101ac800a7fb0700323323003305240088fd0700f5
:101ad8000200200003582400a6fc070020079800f5
:101ae800310798002e019000be01900000002000f0
:101af800812024009ffc070002002000030a240024
:101b0800aefb0700a0898800b18988001e009000fc
:101b180068004000100078008000eb0090fb070090
:101b2800323323003305240071fd07000200200032
:101b3800035824008ffc07002007980031079800fd
:101b48002e019000be01900000002000812024009a
:101b580088fc070002002000030a240097fb070006
:101b6800008a8800118a8800c0898000d189800095
:101b780018c0b300020020000320240035fb070032
:101b88000000e000010035000044eb000804e0001c
:101b980002003200848ea80001003700848ea9005c
:101ba800e0898000f189800018c0b300020020009d
:101bb8000320240027fb07000000e0000100350097
:101bc8000044eb000804e0000200320084cea800c4
:101bd8000100370084cea9008089800091898000a7
:101be80018c0b300020020000320240019fb0700de
:101bf8000000e000010035000044eb000804e000ac
:101c08000200320084aea8000100370084aea900ab
:101c1800a0898000b189800018c0b30002002000ac
:101c2800032024000bfb07000000e0000100350042
:101c38000044eb000804e00002003200856ea800b2
:101c480001003700856ea900008a8000118a800093
:101c580018c0b3000200200003202400fdfa07008a
:101c68000000e000010035000044eb000804e0003b
:101c780002003200754ea80037ff3700754ea900e4
:101c880035ff37000200fa00881f78000040eb009b
:101c9800004f7800e0898000f189800018c0b30007
:101ca8000200200003202400eafa07000000e000f8
:101cb800010035000044eb000804e0000100320098
:101cc8001e44a000808980009189800018c0b3005c
:101cd8000200200003202400defa07000000e000d4
:101ce800010035000044eb000804e0000100320068
:101cf8001e34a000c0898000d189800018c0b300bc
:101d08000200200003202400d2fa07000000e000af
:101d1800010035000044eb000804e0000100320037
:101d28001e24a000a0898000b189800018c0b300db
:101d38000200200003202400c6fa07000000e0008b
:101d4800010035000044eb000804e0000100320007
:101d58001e14a000008a8000118a800018c0b300f9
:101d68000200200003202400bafa07000000e00067
:101d7800010035000044eb000804e00001003200d7
:101d88001e04a0001e80fb00cf80de00f2012000b0
:101d980003002000820f5000838f580033003e005c
:101da800000601001f0037002d0037002c00370007
:101db8002b0037001e0037002300370022003700b1
:101dc80021003700230037002200370018003700b1
:101dd80017003700190037001800370014003700c3
:101de800190037001b0037000e00370019003700b4
:101df8001e003700110037000d0037000c003700b7
:101e08000b003700130037001800370008003700b0
:101e180007003700090037000500370007003700c2
:101e28000300370020c0b30013f0b70012003700da
:101e380040c0b30013f0b7000f00370080c0b300f4
:101e480013f0b7000c00370060c0b30013f0b70000
:101e580009003700c0c0b30013f0b7000600370010
:101e6800a0c0b30013f0b7000300370020c0b300d0
:101e780013f0b7000000000013d0bf008080fb0003
:101e880012d0bf000080fb000000e900808f5000e6
:101e98000200320013d0bf0012f0b7004f047800e0
:101ea8000080fa00000006000000fa00881f780091
:101eb800328080004380800000a62e0001002000b0
:101ec800800f5100818f5900070036008000eb0019
:101ed8000000eb00db020700110020000000eb000f
:101ee800d8020700ce00370012d0bf000080fb00e8
:101ef800cf80de005201200003002000820f500036
:101f0800838f5800b8003e00000601001500370016
:101f18001d003700260037002e0037002f0037003d
:101f280037003700430037004b00370036003700d2
:101f38003e003700550037005d0037004800370085
:101f480050003700a8003700a7003700a600370068
:101f5800a5003700a4003700a3003700560037005b
:101f68009f0037008000eb000000eb00b50207007f
:101f7800110020000000eb00b202070010c0b300ff
:101f880012f0b700a600370032808000438080003e
:101f9800803e200001002000800f5100818f5900f1
:101fa8009400360020c0b30012f0b7009c00370040
:101fb8008000eb0020fe2f00a20207001100200085
:101fc800e00120009f02070030c0b30012f0b70004
:101fd800930037002bff0700910037008000eb00cb
:101fe80090012000970207001100200090012000b6
:101ff8009402070050c0b30012f0b7008800370001
:1020080020ff0700860037008000eb0090012000c9
:102018008c020700110020008000200089020700c0
:1020280090c0b30012f0b7007d00370015ff07001d
:102038007b0037008000eb0080ff2f008102070043
:102048001100200070fe2f007e02070070c0b30050
:1020580012f0b700720037000aff0700700037005f
:102068008000eb0080ff2f0076020700110020009f
:102078009001200073020700d0c0b30012f0b7002f
:1020880067003700fffe0700650037008000eb009f
:1020980070fe2f006b020700110020008000200056
:1020a80068020700b0c0b30012f0b7005c00370048
:1020b800f4fe07005a0037008000eb0040012000c2
:1020c8006002070011002000c0fe2f005d0207001b
:1020d800e0898000f189800018c0b3000200200068
:1020e800031f2400dbf907000000e00001003500b1
:1020f8000044eb00084078000004a2000004e0005f
:102108003e003200808980009189800018c0b300a9
:1021180002002000031f2400cef907000000e000a1
:10212800010035000044eb00084078000004a200dc
:102138000004e00033003200c0898000d1898000ab
:1021480018c0b30002002000031f2400c1f90700d3
:102158000000e000010035000044eb000840780072
:102168000004a2000004e00028003200a0898000da
:10217800b189800018c0b30002002000031f2400aa
:10218800b4f907000000e000010035000044eb004e
:10219800084078000004a2000004e0001d0032009e
:1021a800008a8000118a800018c0b3000200200055
:1021b800031f2400a7f907000000e0000100350014
:1021c8000044eb00084078000004a2000004e0008e
:1021d8001200320040c0b30012f0b7001000370000
:1021e800a8fe07000e0037001270ef000000000084
:1021f8000b00370000000000090037000000000055
:10220800070037000000000005003700000000004c
:102218000300370000000000010037000000000044
:102228004f0478000080fa00000006000000fa0061
:1022380005e1a9000421a9000068a9002068a800f8
:1022480005e1a80000002000a137240026000700af
:102258000080fa00000006000000fa0013e1a9005f
:1022680011e1a9001061a8001021a90081088000cf
:10227800f0fc2f0000806000800888000a21ef0031
:102288000621ef00707220007008880000e020002e
:10229800600888002142800080ff2f0000806000d5
:1022a8000000a000204288000108a9002108a80019
:1022b80011e1a8000080fa00000006000000fa0002
:1022c8001fe1a9001e21a9000368a9002368a8002e
:1022d8001fe1a80000002000a147240076000700a5
:1022e8000080fa00000006000400fa00881f780049
:1022f800008fbe0021088000f0fc2f0000806000e5
:10230800200888001e0178009e019000001c2e0005
:1023180041c6240097fa070018c0b30002f02f0046
:10232800f37724004df907000000e00001003c00ad
:102338000044eb000804e00054003200210880004b
:10234800f0fc2f00008060000040a00020088800fa
:102358001e0178009e019000001c2e0041c624003a
:1023680084fa0700020020000310240081fa070005
:1023780018c0b30002f02f00f377240037f90700e4
:102388000000e00001003c000044eb000804e0000d
:102398003200320021088000f0fc2f00008060002d
:1023a8000050a000200888001e0178009e019000bf
:1023b800001c2e0041c624006efa0700020020000f
:1023c800032824006bfa070018c0b30002f02f009e
:1023d800f377240021f907000000e00001003c0029
:1023e8000044eb000804e0001000320021088000df
:1023f8000003200001007000200888001e017800fa
:102408009e019000001c2e0041c6240059fa0700c6
:10241800020020000338240056fa070011f90700cb
:102428000000780010088800200037001e0178009e
:102438009e019000001c2e0041c624004dfa0700a2
:1024480002002000032824004afa070005f90700c3
:102458000000780010088800140037001e0178007a
:102468009e019000001c2e0041c6240041fa07007e
:1024780002002000031024003efa0700f9f80700c4
:102488000000780010088800080037001e01780056
:102498009e019000001c2e0041c6240035fa07005a
:1024a800f0f8070000007800100888004f04780052
:1024b8000080fa00000006000400fa00881f780077
:1024c800008fbe00f1088000f0fc2f000080600043
:1024d800f00888001e0178009e019000001c2e0064
:1024e80041c6240023fa070018c0b30002f02f00e9
:1024f800f3772400d9f807000000e00001003c0051
:102508000044eb000804e00054003200f1088000a9
:10251800f0fc2f00008060000040a000f008880058
:102528001e0178009e019000001c2e0041c6240068
:1025380010fa070002002000031024000dfa07001b
:1025480018c0b30002f02f00f3772400c3f8070087
:102558000000e00001003c000044eb000804e0003b
:1025680032003200f1088000f0fc2f00008060008b
:102578000050a000f00888001e0178009e0190001d
:10258800001c2e0041c62400faf9070002002000b2
:1025980003282400f7f9070018c0b30002f02f0041
:1025a800f3772400adf807000000e00001003c00cc
:1025b8000044eb000804e00010003200f10880003d
:1025c8000003200001007000f00888001e01780058
:1025d8009e019000001c2e0041c62400e5f907006a
:1025e8000200200003382400e2f907009df80700e4
:1025f80000007800d0088800200037001e0178000d
:102608009e019000001c2e0041c62400d9f9070045
:102618000200200003282400d6f9070091f80700db
:1026280000007800d0088800140037001e017800e8
:102638009e019000001c2e0041c62400cdf9070021
:102648000200200003102400caf9070085f80700db
:1026580000007800d0088800080037001e017800c4
:102668009e019000001c2e0041c62400c1f90700fd
:102678007cf8070000007800d00888004f04780034
:102688000080fa00000006000000fa0011608000d7
:1026980080ff2f00008060001060880000962000f6
:1026a800206088001161800000c0200001007000d7
:1026b8001061880023cca80023eca800300020007b
:1026c800206188001162800000c0200001007000b5
:1026d8001062880043cca80043eca800300020001a
:1026e8002062880001eca80000002000812424005a
:1026f80060898800718988000080fa00000006005f
:102708000000fa00889fbe000489800015898000b7
:10271800e0888000f188800018c0b3000001be0086
:102728000400be004bf807000000e000010035007f
:102738000044eb000804e0000d003200e888800047
:10274800f9888000048980001589800060898000ec
:10275800718980000001be000400be00a0f80700d7
:102768000801be00fb000700008988001189880065
:102778000489800015898000e0888000f188800045
:1027880018c0b3000001be000400be0033f8070003
:102798000000e00001003c000044eb000804e000f9
:1027a8000d003200e8888000f988800004898000e4
:1027b8001589800060898000718980000001be0051
:1027c8000400be007df807000801be00c90007002c
:1027d800008988001189880000898000118980009b
:1027e80018c0b3006011b8001cf807000000e00032
:1027f80001003c000044eb000804e0001400320033
:10280800008980001189800002002000031c240038
:1028180037fa07000002be00508080006180800007
:102828000001be000400be006df807002ef8070086
:10283800000078003061880050808000618080004e
:1028480029f807000000780070618800140037003c
:10285800508080006180800023f807000000780025
:1028680030618800008980001189800001f0a20091
:1028780002002000031c24001dfa07000002be000d
:1028880050808000618080000001be000400be000e
:1028980053f8070014f807000000780070618800fa
:1028a8004489800055898000208980003189800012
:1028b80018c0b3000001be000400be00e5f7070021
:1028c8000000e000010035000044eb000804e000cf
:1028d8000d003200288980003989800044898000f1
:1028e8005589800060898000718980000001be00e0
:1028f8000400be003af807000801be009500070072
:102908004089880051898800448980005589800061
:10291800208980003189800018c0b3000001be0002
:102928000400be00cdf707000000e00001003c00f5
:102938000044eb000804e0000d0032002889800004
:102948003989800044898000558980006089800029
:10295800718980000001be000400be0017f807005e
:102968000801be006300070040898800518988007b
:10297800408980005189800018c0b3006011b800f8
:10298800b6f707000000e00001003d000044eb003e
:102998000804e0001400320040898000518980005a
:1029a80002002000031c2400d1f907000002be0029
:1029b80050808000618080000001be000400be00dd
:1029c80007f80700c8f707000000780030628800a1
:1029d8005080800061808000c3f707000000780005
:1029e8007062880014003700508080006180800089
:1029f800bdf7070000007800306288004089800039
:102a08005189800001f0a20002002000031c24006c
:102a1800b7f907000002be00508080006180800086
:102a28000001be000400be00edf70700aef7070086
:102a380000007800706288004f04be000080fa0031
:102a4800000006000400fa00000f78001107980043
:102a58001e0090000000e00006003a001e0078000a
:102a6800cf80de00bbf70700208988003189880005
:102a7800080037001e009000e10f500005003a00e2
:102a88001e007800cf80de00b2f70700e0888800db
:102a9800f18888000080fa00000006000400fa00af
:102aa800881f7800008fbe0018c0b3006011b800fe
:102ab8001e0078009e00900068f707000000e00004
:102ac80001003d000044eb000804e0000300320070
:102ad8001e0078009e009000030037001e0078005a
:102ae8009e00900001f0a2004f0478000080fa00d8
:102af800000006000800fa00881f7800008fbe005a
:102b0800220798003307980018c0b3002e019000e0
:102b1800be0190001e0078009e0090004ff707004d
:102b28000000e00001003c000044eb000804e00065
:102b3800030032001e0078009e009000020037005b
:102b48002e009000be0090004f0478000080fa002c
:102b5800000006000800fa00881f7800008fbe00f9
:102b6800220798003307980018c0b3002e01900080
:102b7800be0190001e0078009e00900035f7070007
:102b88000000e000010035000044eb000804e0000c
:102b9800030032001e0078009e00900002003700fb
:102ba8002e009000be0090004f0478000080fa00cc
:102bb800000006000c00fa00881f7800008fbe0095
:102bc8002207980033079800440798005507980093
:102bd80018c0b3004e019000de0190001e0078007e
:102be8009e0090001df707000000e00001003c0077
:102bf8000044eb000804e000040032004e0190009d
:102c0800de019000028fbe000e00370018c0b3002e
:102c18002e019000be0190001e0078009e009000da
:102c28000cf707000000e000010035000044eb004d
:102c38000804e000030032002e019000be0190005d
:102c4800028fbe001e0078009e0090004f0478009e
:102c58000080fa00000006000400fa00008fbe00a1
:102c6800b2fd2000930424001e0078009e0090000e
:102c780040f8070002002000433324001cf9070035
:102c88000080fa00000006000400fa00008fbe0071
:102c9800b2fd2000930424001e0078009e009000de
:102ca80013f90700020020004333240031f807001d
:102cb8000080fa00000006000600fa0010079800dd
:102cc800210798000040eb00004f780054000700ef
:102cd800ae009000810f5000110034000040eb005e
:102ce800004f7800060037001e80fb009e00900011
:102cf80000804000104078000b0007001e4fe800dd
:102d08009e80fb002e009000808f5000f6ff35005b
:102d18002e0007000004e00001003a00220007002e
:102d28000080fa00000006000200fa00004f780058
:102d380000808000a1012100008040001e4878002a
:102d4800008080000000e80000808800018080008a
:102d5800f0072000808f5000010034000030ef00a1
:102d68000080fa00000006000200fa0010808000cf
:102d7800a101210000804000104f780010808000e1
:102d88000000e8001080880011808000f007200013
:102d9800808f5000010034000230ef001e407800a0
:102da8000080fa00000006000200fa0010c0b3001c
:102db80004f0b700ecff0700004f78001e80fb000e
:102dc800201188000080fa00000006000000fa00c8
:102dd80004d0bf000080fa00000006000200fa00dc
:102de8000180800010808000808f50000400350032
:102df8000180800010808000008f5000050037009f
:102e080001808000108080000080500001082000b0
:102e1800010f40001e0078000080fa000000060044
:102e28000000fa00edff07000108200000805000b4
:102e38000080fa00000006000000fa00413a800015
:102e480000fc2f00008060007001b300403a880049
:102e5800313a800000e02f0080806000800520006b
:102e680001007000303a8800213a8000f0f32f000a
:102e780000806000203a8800213a800000fe2f0080
:102e8800008060000000a000203a880012002000a6
:102e980080072000a10920003374200080497800b1
:102ea8008149780082497800103a80000001780052
:102eb8000200a00060042000710520002374200097
:102ec8008049780081497800824978000000000034
:102ed800113a800000002700808060000000210077
:102ee800808f5000faff3a005927a800c13a8000a5
:102ef80080ff2f00008060000000a000c03a88001a
:102f0800d03a80007000b300d03a8800c13a8000ff
:102f1800f0f12f0080806000000c2000010070009c
:102f2800c03a880059a7a80059e7a8000000000087
:102f3800c13a800000002400008060000000e0002a
:102f4800fbff320000000000113a80000002200060
:102f5800008060000000e000fbff32000080fa0003
:102f6800000006000000fa0021e3a9002143a800a0
:102f780001198000f0cf2f00008060000019880040
:102f88002043a90001198000000e200001007000f4
:102f98000019880011198000f0ff210000806000ee
:102fa800101988002343a80011198000f0cf2f00c2
:102fb80000806000101988001119800030f82f0077
:102fc800008060000040a000101988002203a900ba
:102fd8002223a90025e3a900f0c0b30024e3b70029
:102fe80021198000f00f2e008080600000f0200082
:102ff80001007000201988003303a9001e0ea800e4
:103008001f0ea8001f2ea8001f4ea8001f6ea800a4
:103018003003a8003103a8003123a8003143a800d9
:103028003163a8004119800000fe2f000080600075
:103038004019880028e3a90001a8a90021a8a80030
:1030480021e3a8000080fa00000006000000fa0052
:103058002023a8000080fa00000006000000fa0003
:10306800401421000080fa00000006000000fa0069
:1030780017d0bf000080fa00000006000000fa0028
:103088001770ef000080fa00000006000200fa0046
:10309800004f78003b0007000000e0000c003400ff
:1030a80070808000a1092100008040001e4878003f
:1030b800708080000000e8007080880071808000c7
:1030c800f0072000808f5000010034000e30ef0020
:1030d8000080fa00000006000200fa0080808000ec
:1030e800a109210000804000104f780080808000f6
:1030f8000000e8008080880081808000f0072000c0
:10310800808f5000010034001030ef001e4078001e
:103118000080fa00000006000000fa0071808000bc
:1031280080808000808f50000200320010c0b30001
:10313800010037000040eb000080fa0000000600a4
:103148000200fa007180800080808000808f50002b
:10315800040035007180800080808000008f50005e
:10316800050037007180800080808000008050005a
:1031780001082000010f40001e0078000080fa00be
:10318800000006000000fa00edff0700010820001b
:10319800008050000080fa00000006000000fa00dd
:1031a8002002a9000111800090ff2f00008060001c
:1031b8000011880020a2a9002062a80010082000a1
:1031c8004011880023a2a90023e2a9000188a900d0
:1031d8002188a80011118000f0f32f000080600002
:1031e800101188000168a9002168a80021e2a80040
:1031f8002342a8000080fa00000006000600fa003a
:1032080010079800210798000040eb00004f780055
:103218000040eb00004f78000e003700000000006f
:103228001111800000202000008060000000e000f4
:10323800fbff3a001e009000104078000080fb0061
:10324800201188001e0090000000e8001007980078
:103258001e4fe8009e80fb002e009000808f5000db
:10326800eeff35000080fa00000006000000fa00ba
:103278000e2eef001e2eef003e2eef002e2eef003a
:103288004e2eef006e2eef0080cea90080aea90072
:10329800808ea900816ea900714ea900012ea90097
:1032a800014ea900706ea90091eea900000ea900b8
:1032b800702ea800160007002136800000f82f00a5
:1032c800008060002001b30020368800813480002f
:1032d80000fc2f00008060000000a00080348800ff
:1032e800020007000080fa00000006000000fa0053
:1032f80021742000620420007305200082487800b1
:103308008348780042c7a8000080fa000000060041
:103318000000fa00217420006204200073052000d8
:10332800824878008348780042c7a9000080fa00e4
:04333800000006008b
:020000040000fa
:10333c0012100000020000008000000006100000c7
:10334c00040000008200000040420f00000000005a
:10335c001410000002000000800000004411000066
:10336c000a0000008000000016100000020000009f
:10337c00800000001a1100002a00000080000000ec
:10338c000a10000004000000820000000000480049
:10339c00420000001a1000008000000080000000b5
:1033ac000010000006000000800000009a100000d1
:1033bc0080000000800000000e10000004000000df
:1033cc0080000000181000000200000080000000c7
:0433dc0000000000ed
:020000040000fa
:0200000401f009
:04000800cfffff0027
:020000040000fa
:0200000401f009
:04000c00f9ffff00f9
:020000040000fa
:0200000401f009
:040010005bffff0093
:020000040000fa
:0200000401f009
:040014007fffff006b
:020000040000fa
:0200000401f009
:04001800cfffff0017
:020000040000fa
:0200000401f009
:04001c00deffff0004
:020000040000fa
:0200000401f009
:04002000cfffff000f
:00000001FF
